:020000040800F2
:10000000005000203D18000821180008231800089F
:10001000251800082718000829180008000000000B
:100020000000000000000000000000002B18000885
:100030002D180008000000002F18000831180008D3
:10004000851800088518000885180008851800081C
:10005000851800088518000885180008851800080C
:1000600085180008851800088518000885180008FC
:1000700085180008851800088518000885180008EC
:1000800085180008851800088518000885180008DC
:1000900085180008851800088518000885180008CC
:1000A00085180008851800088518000885180008BC
:1000B00085180008851800088518000885180008AC
:1000C000851800088518000885180008851800089C
:1000D000851800088518000885180008851800088C
:1000E0008518000885180008851800080000000021
:1000F0000000000000000000000000000000000000
:0C01000000000000000000005FF808F1A3
:10010C0010B5054C237833B9044B13B10448AFF345
:10011C0000800123237010BD3C040020000000006F
:10012C00501A000808B5034B1BB103490348AFF341
:10013C00008008BD0000000040040020501A000898
:10014C0010B504460E4B18784FF47A73B3FBF0F3EA
:10015C000C4A1068B0FBF3F000F0AEF868B90F2C45
:10016C0001D901200AE0002221464FF0FF3000F0B7
:10017C005DF8054B1C60002000E0012010BD00BFA5
:10018C0000000020080000200400002008B5074AE9
:10019C00136843F010031360032000F035F80020BF
:1001AC00FFF7CEFF01F0ACFA002008BD00200240A2
:1001BC00034A1168034B1B780B441360704700BF54
:1001CC005804002000000020014B1868704700BF45
:1001DC0058040020014B1878704700BF0000002025
:1001EC0038B50446FFF7F0FF0546B4F1FF3F02D0E7
:1001FC00044B1B781C44FFF7E7FF401BA042FAD3CB
:10020C0038BD00BF00000020074AD36823F4E06328
:10021C001B041B0C000200F4E060034343F0BF63BB
:10022C0043F40033D360704700ED00E030B4174B5B
:10023C00DB68C3F30223C3F10704042C28BF042496
:10024C001D1D062D18D9033B4FF0FF3505FA04F49C
:10025C0021EA0401994005FA03F322EA0303194346
:10026C0000280BDB0901C9B200F1604000F56140C8
:10027C0080F8001330BC70470023E5E700F00F0056
:10028C000901C9B2024B1954F4E700BF00ED00E0BC
:10029C0014ED00E0BFF34F8F0549CA6802F4E06229
:1002AC00044B1343CB60BFF34F8F00BFFDE700BF80
:1002BC0000ED00E00400FA050138B0F1807F0AD2AD
:1002CC00064B5860064AF02182F8231000209860F3
:1002DC0007221A6070470120704700BF10E000E051
:1002EC0000ED00E0F0B482B000252C46A3E07F4F77
:1002FC00BB4210D007D97E4FBB420CD007F58037DC
:10030C00BB4208D013E0A7F58017BB4203D007F51A
:10031C007027BB4207D18B68002B58D0012B51D0D2
:10032C004261082503E0A7F58017BB42F3D0FF2EEE
:10033C004FD88446FF2E4FD8A200DCF800300F2790
:10034C00974023EA070305FA02F21343CCF8003076
:10035C004B6813F0805F6DD0664B9A6942F00102D6
:10036C009A619B6903F001030193019BA208971CFE
:10037C00614B53F8273004F00307BF004FF00F0C0C
:10038C000CFA07FC23EA0C0C5C4B98422AD003F5C0
:10039C008063984200F08A8003F58063984200F0F5
:1003AC00878003F5806398421AD004231BE0CD6844
:1003BC00BDE7CD680435BAE7CD680835B7E7CD6839
:1003CC000C35B4E702610825B1E70025AFE7042539
:1003DC00ADE700F1040CADE7A4F108029200ACE724
:1003EC00032300E00023BB4043EA0C030232424FDC
:1003FC0047F822304B6813F4803F5BD0404A1368B7
:10040C00334313604B6813F4003F59D03C4A536894
:10041C00334353604B6813F4801F57D0384A9368AA
:10042C00334393604B6813F4001F55D0344AD368A0
:10043C001E43D66001340B6833FA04F252D0012209
:10044C00A24003EA020632EA0303F3D14B68122BF3
:10045C003FF64DAF122B3FF66AAF01A757F823F0CA
:10046C0023030008BB030008C5030008D7030008DA
:10047C003B0300083B0300083B0300083B03000858
:10048C003B0300083B0300083B0300083B03000848
:10049C003B0300083B0300083B0300083B03000838
:1004AC003B030008BF030008CB03000801239AE7B5
:1004BC00022398E7124A136823EA06031360A1E7A4
:1004CC000F4A536823EA06035360A3E70C4A936868
:1004DC0023EA06039360A5E7094AD36823EA0606D4
:1004EC00D660A7E702B0F0BC704700BF0000221036
:1004FC0000003110001002400000014000080140D3
:10050C00000401400AB101617047090401617047A0
:10051C00C36801EA030221EA030141EA02410161D5
:10052C00704740B338B5044603684CF6CC421A60A9
:10053C00036845F255521A60036842685A600368B2
:10054C0082689A60FFF740FE05462368DA6812F06D
:10055C00030F0BD0FFF738FE401B2728F5D9236873
:10056C00DB6813F0030FF0D0032003E04AF6AA2255
:10057C001A60002038BD0120704703684AF6AA2291
:10058C001A6000207047000082B0084B1B68084AB4
:10059C00A2FB03235B0A00FB03F3019300BF019B47
:1005AC005A1E0192002BF9D102B0704708000020AE
:1005BC00D34D6210002800F0F18170B582B0044672
:1005CC00036813F0010F2CD0AA4B5B6803F00C03EB
:1005DC00042B1DD0A74B5B6803F00C03082B12D027
:1005EC006368B3F5803F41D0002B55D103F18043B4
:1005FC0003F504331A6822F480321A601A6822F464
:10060C0080221A6037E09B4B5B6813F4803FE7D085
:10061C00984B1B6813F4003F03D06368002B00F069
:10062C00BF81236813F0020F75D0924B5B6813F0F7
:10063C000C0F5FD08F4B5B6803F00C03082B54D06E
:10064C002369002B00F089808B4B01221A60FFF785
:10065C00BBFD0546874B1B6813F0020F74D1FFF7E7
:10066C00B3FD401B0228F5D903209EE1814A136893
:10067C0043F480331360636843B3FFF7A5FD05466D
:10068C007C4B1B6813F4003FCBD1FFF79DFD401B47
:10069C006428F5D9032088E1B3F5A02F09D0754B58
:1006AC001A6822F480321A601A6822F480221A60C6
:1006BC00E1E703F18043A3F53C331A6842F480224E
:1006CC001A601A6842F480321A60D4E7FFF77CFD96
:1006DC000546684B1B6813F4003FA2D0FFF774FD6E
:1006EC00401B6428F5D903205FE1624B5B6813F46F
:1006FC00803FA5D15F4B1B6813F0020F03D0236919
:10070C00012B40F04F815B4A136823F0F8036169B9
:10071C0043EAC1031360236813F0080F32D0A369B6
:10072C00002B45D0554B01221A60FFF74DFD0546B5
:10073C00504B5B6A13F0020F21D1FFF745FD401BB4
:10074C000228F5D9032030E14A4A136823F0F80354
:10075C00616943EAC1031360DDE7474B00221A606D
:10076C00FFF732FD0546434B1B6813F0020FD2D046
:10077C00FFF72AFD401B0228F5D9032015E10120C3
:10078C00FFF702FF236813F0040F00F09780394B3A
:10079C00DB6913F0805F1DD1364BDA6942F0805271
:1007AC00DA61DB6903F080530193019B012512E0B0
:1007BC00324B00221A60FFF707FD05462D4B5B6A92
:1007CC0013F0020FDED0FFF7FFFC401B0228F5D917
:1007DC000320EAE000252A4B1B6813F4807F11D01C
:1007EC00E368012B22D0002B38D103F1804303F5B1
:1007FC0004331A6A22F001021A621A6A22F0040205
:10080C001A6218E01E4A136843F480731360FFF7F2
:10081C00DBFC06461A4B1B6813F4807FE0D1FFF714
:10082C00D3FC801B6428F5D90320BEE0114A136A5F
:10083C0043F001031362E36873B3FFF7C5FC06468C
:10084C000C4B1B6A13F0020F37D1FFF7BDFC801B5A
:10085C0041F288339842F3D90320A6E0052B11D03E
:10086C00044B1A6A22F001021A621A6A22F004027C
:10087C001A62E0E70010024000004242800442424B
:10088C00007000404D4B1A6A42F004021A621A6A58
:10089C0042F001021A62CEE7FFF796FC0646474B80
:1008AC001B6A13F0020F08D0FFF78EFC801B41F27D
:1008BC0088339842F3D9032077E0E5B9E369002B3C
:1008CC0072D03E4A526802F00C02082A56D0022B13
:1008DC0017D03B4B00221A60FFF776FC0446374BCF
:1008EC001B6813F0007F47D0FFF76EFC001B02283B
:1008FC00F5D9032059E0314AD36923F08053D361F1
:10090C00DCE72F4B00221A60FFF75EFC05462B4BF1
:10091C001B6813F0007F06D0FFF756FC401B022823
:10092C00F5D9032041E0236AB3F5803F1AD023495F
:10093C004B6823F47413226A606A024313434B60BE
:10094C001F4B01221A60FFF73FFC04461B4B1B6830
:10095C0013F0007F0ED1FFF737FC001B0228F5D9EE
:10096C00032022E0154A536823F40033A1680B439B
:10097C005360DCE7002018E0002016E0012B16D0B5
:10098C000E4B5B6803F48031226A914211D103F45F
:10099C007013626A93420ED1002006E0012070476A
:1009AC00012002E0012000E0002002B070BD012017
:1009BC00FBE70120F9E70120F7E700BF0010024038
:1009CC006000424286B0164B0FCB0DF1180C0CE9AF
:1009DC000F0040F20123ADF80430124B5B6803F0BA
:1009EC000C02082A02D0104806B07047C3F38342A9
:1009FC00624412F8102C13F4803F0CD0094B5B6846
:100A0C00C3F34043634413F8143C074800FB02F063
:100A1C00B0FBF3F0E8E7054800FB02F0E4E700BFA9
:100A2C00681A00080010024000127A0000093D000C
:100A3C00002800F0A08070B50D460446524B1B6890
:100A4C0003F007038B420BD24F4A136823F00703C2
:100A5C000B431360136803F007038B4240F08D8047
:100A6C00236813F0020F17D013F0040F04D0474A79
:100A7C00536843F4E0635360236813F0080F04D009
:100A8C00424A536843F460535360404A536823F01E
:100A9C00F003A1680B435360236813F0010F31D0AE
:100AAC006368012B20D0022B25D0384A126812F033
:100ABC00020F64D035494A6822F0030213434B609D
:100ACC00FFF782FB0646314B5B6803F00C03626850
:100ADC00B3EB820F16D0FFF777FB801B41F2883304
:100AEC009842F0D9032045E0284A126812F4003FDE
:100AFC00E0D101203EE0254A126812F0007FD9D1E6
:100B0C00012037E0204B1B6803F00703AB420AD9E6
:100B1C001D4A136823F007032B431360136803F07B
:100B2C000703AB422DD1236813F0040F06D0174AEC
:100B3C00536823F4E063E1680B435360236813F0BC
:100B4C00080F07D0114A536823F46053216943EA14
:100B5C00C1035360FFF736FF0C4B5B68C3F3031301
:100B6C000B4AD35CD8400B4B18600B4B1868FFF743
:100B7C00E7FA002070BD012070470120FAE7012040
:100B8C00F8E70120F6E700BF002002400010024009
:100B9C007C1A0008080000200400002070B4036ACE
:100BAC0023F001030362036A4668826922F0730230
:100BBC000C6844EA020523F002028B6813430D4CC7
:100BCC00A04209D00B4CA0420DD0466085614A680A
:100BDC004263036270BC704723F00803CA68134376
:100BEC0023F00403EEE726F440764A6932438E691B
:100BFC001643EAE7002C014030B4036A23F48073F7
:100C0C000362036A4568C26922F073020C682243CE
:100C1C0023F400738C6843EA04230F4CA04209D0E0
:100C2C000D4CA0420ED04560C2614A68C26303629B
:100C3C0030BC704723F40063CC6843EA042323F4EC
:100C4C008063EDE725F440554C6945EA04158C6941
:100C5C0045EA0415E7E700BF002C014030B4036AF5
:100C6C0023F480530362036A4468C26922F4E642A7
:100C7C000D6842EA052223F400538D6843EA0533DC
:100C8C00074DA84206D04460C2614A680264036200
:100C9C0030BC704724F480444D6944EA8514F2E773
:100CAC00002C014030B4036A056A25F00105056289
:100CBC00846924F0F00444EA021423F00A030B4381
:100CCC008461036230BC704730B4056A25F01005AE
:100CDC0005628469036A24F4704444EA023423F004
:100CEC00A00343EA01138461036230BC704783683C
:100CFC0023F070030B4343F0070383607047704786
:100D0C0003681B4A90420AD0B0F1804F07D0A2F57D
:100D1C009432904203D002F58062904203D123F0CA
:100D2C0070034A681343124A90420AD0B0F1804FC4
:100D3C0007D0A2F59432904203D002F58062904223
:100D4C0003D123F44073CA68134323F080034A6928
:100D5C00134303608B68C3620B688362044B984235
:100D6C0002D00123436170470B690363F9E700BFAD
:100D7C00002C014040B310B5044690F83D30F3B15F
:100D8C00022384F83D30214651F8040BFFF7B8FFDD
:100D9C00012384F8463084F83E3084F83F3084F8E0
:100DAC00403084F8413084F8423084F8433084F881
:100DBC00443084F8453084F83D30002010BD80F874
:100DCC003C3000F0BFFCDBE70120704740B310B5AE
:100DDC00044690F83D30F3B1022384F83D302146AF
:100DEC0051F8040BFFF78CFF012384F8463084F88C
:100DFC003E3084F83F3084F8403084F8413084F839
:100E0C00423084F8433084F8443084F8453084F818
:100E1C003D30002010BD80F83C30FFF770FFDBE761
:100E2C000120704730B4036A23F010030362036A95
:100E3C004468826922F4E6420D6842EA052223F0F6
:100E4C0020038D6843EA05130E4DA84209D00D4DC1
:100E5C00A8420ED0446082614A688263036230BC4F
:100E6C00704723F08003CD6843EA051323F0400359
:100E7C00EDE724F440644D6944EA85048D6944EA45
:100E8C008504E7E7002C014038B590F83C30012B85
:100E9C0060D004460D46012380F83C300C2A1AD849
:100EAC00DFE802F0071919191D1919193119191947
:100EBC0044000068FFF772FE2268936943F0080350
:100ECC0093612268936923F0040393612268936908
:100EDC0029690B439361002084F83C0038BD0068FD
:100EEC00FFF7A0FF2268936943F4006393612268C3
:100EFC00936923F48063936122689369296943EAB7
:100F0C0001239361E7E70068FFF776FE2268D36957
:100F1C0043F00803D3612268D36923F00403D3613F
:100F2C002268D36929690B43D361D4E70068FFF7C2
:100F3C0095FE2268D36943F40063D3612268D369B8
:100F4C0023F48063D3612268D369296943EA0123BE
:100F5C00D361C0E70220C1E710B4846824F47F4455
:100F6C0042EA03220A432243826010BC704790F885
:100F7C003C30012B66D010B50446012380F83C3080
:100F8C00022380F83D300268936823F47F4323F0FA
:100F9C00770393600B68602B40D022D8402B47D04E
:100FAC000BD9502B0ED1CA6849680068FFF77AFE3E
:100FBC0050212068FFF79BFE04E0202B0CD008D9B1
:100FCC00302B09D0012384F83D30002084F83C00FC
:100FDC0010BD0BB1102BF5D119462068FFF787FE19
:100FEC00F0E7702B0ED0B3F5005FEBD1CB684A68FD
:100FFC0089680068FFF7B0FF2268936843F4804368
:10100C009360DFE7CB684A6889680068FFF7A4FF44
:10101C002268936843F077039360D3E7CA68496802
:10102C000068FFF751FE60212068FFF760FEC9E7FA
:10103C00CA6849680068FFF735FE40212068FFF751
:10104C0056FEBFE70220704710B401F01F010123C8
:10105C0003FA01F4036A23EA04030362036A02FA43
:10106C0001F10B43036210BC7047000010B504463D
:10107C00084651BB94F83E30DBB2013B18BF01234C
:10108C00002B5BD1002839D1022384F83E30012299
:10109C0001462068FFF7D8FF23682A4A93423DD0C7
:1010AC002368284A93423ED0B3F1804F3BD0A2F53F
:1010BC009432934237D002F58062934233D01A684F
:1010CC0042F001021A60002039E0042908D00829F6
:1010DC000DD094F84130DBB2013B18BF0123CFE7B0
:1010EC0094F83F30DBB2013B18BF0123C8E794F8FA
:1010FC004030DBB2013B18BF0123C1E7042805D007
:10110C00082807D0022384F84130C0E7022384F872
:10111C003F30BCE7022384F84030B8E75A6C42F405
:10112C0000425A64BCE79A6802F00702062A07D00C
:10113C001A6842F001021A60002000E0012010BD84
:10114C000020FCE7002C014038B504460D46002277
:10115C000068FFF779FF23681B4A934214D0236879
:10116C00196A41F21112114208D1196A40F2444233
:10117C00114203D11A6822F001021A609DB90123B1
:10118C0084F83E30002038BD196A41F21112114228
:10119C00E5D1196A40F244421142E0D15A6C22F472
:1011AC0000425A64DBE7042D05D0082D07D001233B
:1011BC0084F84130E6E7012384F83F30E2E701236D
:1011CC0084F84030DEE700BF002C014090F83C3042
:1011DC00012B2BD030B4012380F83C30022380F853
:1011EC003D3003685C689D6824F070040A682243F3
:1011FC005A6003680E4A93420AD0B3F1804F07D06D
:10120C00A2F59432934203D002F58062934204D14A
:10121C0025F080054A6815439D60012380F83D3018
:10122C00002380F83C30184630BC704702207047D1
:10123C00002C014090F83C30012B22D0012380F887
:10124C003C30CB6823F440738A68134323F48063E7
:10125C004A68134323F400630A68134323F480534E
:10126C000A69134323F400534A69134323F480435C
:10127C00CA69134302685364002380F83C30184653
:10128C00704702207047000008B528B101221021D8
:10129C000448FFF737F908BD002210210148FFF779
:1012AC0031F9F8E7000C014008B528B101222021E2
:1012BC000448FFF727F908BD002220210148FFF759
:1012CC0021F9F8E7000C01402DE9F04188B0002429
:1012DC000494059406940794294B9A6942F01002E1
:1012EC009A619A6902F010020092009A9A6942F08F
:1012FC0020029A619A6902F020020192019A9A697D
:10130C0042F004029A619A6902F004020292029A73
:10131C009A6942F008029A619B6903F008030393EF
:10132C00039BDFF8648022464FF400514046FFF7E0
:10133C00E9F8144D224630212846FFF7E3F84FF424
:10134C00005304930127059706940226079604A9D7
:10135C004046FEF7C7FF082304930594069404A99E
:10136C002846FEF7BFFF3023049305970694079693
:10137C0004A92846FEF7B6FF08B0BDE8F08100BF0F
:10138C0000100240000C01400010014008B520B1D3
:10139C0004210448FFF76AFE08BD04210148FFF749
:1013AC00D3FEF9E76804002070B504460E46FEF73C
:1013BC0011FF0123B3FBF0F3B4FBF3F4FEF704FFCE
:1013CC000546FEF701FF401BA0420DD20748FFF770
:1013DC00D4F83220FEF704FF002EF2D04FF4005167
:1013EC000348FFF795F8ECE770BD00BF5C040020E4
:1013FC000010014008B5FEF74DFF08BD08B50748C1
:10140C00074B0360062343609A238360FFF789F838
:10141C0000B908BDFFF7EEFFFBE700BF5C0400203E
:10142C000030004010B596B000241294139414941C
:10143C0015941094119409940A940B940C940D9493
:10144C000E940F942022214601A800F03BFA2F485D
:10145C002F4B03601023436084604FF21853C3601A
:10146C000461446180238361FFF784FC00283BD135
:10147C004FF48053129312A92448FFF778FD0028EB
:10148C0035D12248FFF7A2FC002833D1002310935A
:10149C00119310A91D48FFF799FE00282DD1602348
:1014AC00099342F228330A9300230B930C930D9368
:1014BC000E930F93042209A91448FFF7E5FCF8B921
:1014CC000023019302930393049305934FF400526A
:1014DC000692089301A90D48FFF7ACFE98B90B488A
:1014EC0000F056F916B010BDFFF784FFC0E7FFF708
:1014FC0081FFC6E7FFF77EFFC8E7FFF77BFFCEE76C
:10150C00FFF778FFDCE7FFF775FFE8E768040020DA
:10151C00002C014000B58FB000230A930B930C9361
:10152C000D930893099301930293039304930593EA
:10153C000693079322484FF08042026002224260D9
:10154C0083604DF25402C260036180238361FFF714
:10155C0011FC30BB4FF480530A930AA91848FFF7CB
:10156C0006FD08BB1648FFF731FC00BB00230893AF
:10157C00099308A91248FFF729FED8B960230193F3
:10158C0041F2D543029300220392059201A90C4823
:10159C00FFF77AFC88B90A4800F0FAF80FB05DF84A
:1015AC0004FBFFF727FFD5E7FFF724FFDAE7FFF788
:1015BC0021FFDBE7FFF71EFFE0E7FFF71BFFEAE782
:1015CC00B004002000B591B0002309930B93019354
:1015DC000293039304930593092206924FF48032ED
:1015EC000792089301230A930C9302230D930E92F6
:1015FC004FF400230F9306A8FEF7DCFF88B90F23E6
:10160C00019302230293002303934FF4C0620492CC
:10161C000593012101A8FFF70BFA28B911B05DF869
:10162C0004FBFFF7E7FEEAE7FFF7E4FEF6E700004E
:10163C0008B5FEF7ABFDFFF7C5FFFFF745FEFFF75B
:10164C00DDFEFFF7EFFEFFF765FF0020FFF79EFEC4
:10165C000020FFF729FE0020FFF716FE00224FF4B2
:10166C0000512648FEF74EFF00214FF4FA60FFF7B9
:10167C009BFE0120FFF708FE0020FFF715FE01205E
:10168C00FFF784FE012143F69820FFF78DFE002022
:10169C00FFF77CFE012143F69820FFF785FE012021
:1016AC00FFF774FE012143F69820FFF77DFE002022
:1016BC00FFF76CFE012143F69820FFF775FE012021
:1016CC00FFF764FE012143F69820FFF76DFE002022
:1016DC00FFF75CFE012143F69820FFF765FE002022
:1016EC00FFF7D2FD0120FFF7DFFD0120FFF74EFED3
:1016FC00012141F28830FFF757FEBAE70010014094
:10170C0082B00E4B9A6942F001029A619A6902F01A
:10171C0001020092009ADA6942F08052DA61DB69C8
:10172C0003F080530193019B054A536823F0E06357
:10173C0043F00073536002B0704700BF00100240CA
:10174C000000014082B003680F4A934204D0B3F109
:10175C00804F0CD002B070470C4B9A6942F4006277
:10176C009A619B6903F400630093009BF2E703F515
:10177C000433DA6942F00102DA61DB6903F0010338
:10178C000193019BE6E700BF002C014000100240D2
:10179C0000B587B000230293039304930593036869
:1017AC00194A934205D0B3F1804F17D007B05DF8BA
:1017BC0004FB164B9A6942F004029A619B6903F090
:1017CC0004030093009B4FF40073029302230393D2
:1017DC00059302A90E48FEF785FDE7E703F50433F0
:1017EC009A6942F004029A619B6903F00403019325
:1017FC00019B0123029302230393059302A904483E
:10180C00FEF770FDD2E700BF002C01400010024033
:10181C00000801407047FEE7FEE7FEE7FEE7704771
:10182C007047704708B5FEF7C3FC08BD7047000051
:10183C000C480D490D4A002302E0D458C45004331F
:10184C00C4188C42F9D30A4A0A4C002301E01360F5
:10185C000432A242FBD3FFF7E9FF00F00FF8FFF7C9
:10186C00E7FE7047000000203C0400209C1A000892
:10187C003C0400201C050020FEE7000070B50D4E56
:10188C000D4D761BB61006D0002455F8043B0134E0
:10189C009847A642F9D1094E094D00F0D3F8761BB2
:1018AC00B61006D0002455F8043B01349847A642E4
:1018BC00F9D170BD901A0008901A0008981A000807
:1018CC00901A0008F0B4860746D0541E002A3CD06B
:1018DC000346CAB201E0013C37D303F8012B9D0744
:1018EC00F9D1032C2AD9CDB245EA05250F2C45EAAE
:1018FC00054534D9A4F1100222F00F0C03F1200796
:10190C001609674403F1100242E9045542E90255F5
:10191C001032BA42F8D1721C14F00C0F03EB021205
:10192C0004F00F0613D0331F23F0030304331344C6
:10193C0042F8045B9342FBD106F003042CB1CAB20B
:10194C001C4403F8012B9C42FBD1F0BC704734467D
:10195C001346002CF3D1F8E714460346C1E71A46A8
:10196C002646E0E7024B13B1024800F005B8704779
:10197C000000000091190008002301461A46184681
:10198C0000F01AB838B5084B084D5B1B9C1007D0FB
:10199C00043B1D44013C55F804399847002CF9D1FF
:1019AC00BDE8384000F054B89C1A0008981A00089A
:1019BC00704700BF704700BF2DE9F047DFF880A0EB
:1019CC000646DAF8000098460F469146FFF7F0FFFE
:1019DC001A4B1B68D3F8484124B365681F2D26DCCD
:1019EC005EB96B1C0235DAF80000636044F82570B0
:1019FC00FFF7E0FF0020BDE8F087012304EB850131
:101A0C00C1F88890D4F88821AB401A43022EC4F850
:101A1C008821C1F80881E4D1D4F88C211343C4F88F
:101A2C008C31DEE703F5A674C3F84841D5E7DAF844
:101A3C000000FFF7BFFF4FF0FF30DCE78C1A000807
:101A4C0038040020F8B500BFF8BC08BC9E467047AF
:0C1A5C00F8B500BFF8BC08BC9E467047FF
:101A680002030405060708090A0B0C0D0E0F1010D7
:101A78000000000000000000000000000102030454
:081A8800060708091000002008
:081A9000711900083101000882
:041A98000D01000834
:101A9C0001000000100000000024F4000000000011
:101AAC0000000000FC02002064030020CC03002096
:101ABC00000000000000000000000000000000001A
:101ACC00000000000000000000000000000000000A
:101ADC0000000000000000000000000000000000FA
:101AEC0000000000000000000000000000000000EA
:101AFC0000000000000000000000000000000000DA
:101B0C0000000000000000000000000000000000C9
:101B1C0000000000000000000000000000000000B9
:101B2C0000000000000000000000000000000000A9
:101B3C000000000000000000000000000000000099
:101B4C000000000000000000010000000000000088
:101B5C000E33CDAB34126DE6ECDE05000B0000004D
:101B6C000000000000000000000000000000000069
:101B7C000000000000000000000000000000000059
:101B8C000000000000000000000000000000000049
:101B9C000000000000000000000000000000000039
:0C1ECC000000000000000000F8040020EE
:040000050800183D9A
:00000001FF
